:020000040800F2
:100000006806002049020008510200085302000857
:1000100055020008570200085902000800000000BD
:100020000000000000000000000000005B0200086B
:100030005D020008000000005F020008990300084C
:1000400063020008630200086302000863020008FC
:1000500063020008630200086302000863020008EC
:1000600063020008630200086302000863020008DC
:1000700063020008630200086302000863020008CC
:1000800063020008630200086302000863020008BC
:1000900063020008630200086302000863020008AC
:1000A000630200086302000863020008630200089C
:1000B000630200086302000863020008630200088C
:1000C000630200086302000863020008630200087C
:1000D000630200086302000863020008630200086C
:1000E00005030008630200086302000863020008B9
:1000F000630200086302000863020008630200084C
:10010000630200086302000863020008630200083B
:10011000630200086302000863020008630200082B
:10012000630200086302000863020008630200081B
:1001300063020008000000000000000063020008E5
:1001400063020008630200086302000863020008FB
:1001500063020008630200086302000863020008EB
:1001600063020008630200086302000863020008DB
:100170006302000863020008630200080000000038
:100180000000000063020008000000000000000002
:100190006302000800000000000000006302000885
:1001A00000000000000000000000000063020008E2
:1001B000630200086302000863020008630200088B
:1001C0006302000800F002F800F02EF80AA090E8A0
:1001D000000C82448344AAF10107DA4501D100F002
:1001E00023F8AFF2090EBAE80F0013F0010F18BFA1
:1001F000FB1A43F00103184718050000280500000A
:100200000023002400250026103A28BF78C1FBD81F
:10021000520728BF30C148BF0B6070471FB500F0C0
:1002200069FA1FBD10B510BD00F031F81146FFF797
:10023000F5FF00F00DFA00F04FF803B4FFF7F2FFFE
:1002400003BC00F057F80000094880470948004700
:10025000FEE7FEE7FEE7FEE7FEE7FEE7FEE7FEE776
:10026000FEE7FEE704480549054A064B70470000D3
:10027000B9030008C50100086800002068060020D6
:10028000680200206802002070477047704775467A
:1002900000F02CF8AE4605006946534620F00700F2
:1002A000854618B020B5FFF7DDFFBDE820404FF0D0
:1002B00000064FF000074FF000084FF0000BAC466F
:1002C000ACE8C009ACE8C009ACE8C009ACE8C009BA
:1002D00021F007018D46704710B50446AFF300804A
:1002E0002046BDE81040FFF7A8BF00000048704757
:1002F0000000002001491820ABBEFEE726000200E6
:100300007047000082B00020009043F61440C4F211
:10031000010000688004002828D5FFE743F6144157
:10032000C4F20101086840F400500860009840B928
:10033000FFE740F26401C2F2000101200860009072
:1003400007E040F26401C2F2000100200860009062
:10035000FFE700200190FFE70198632805D8FFE739
:10036000FFE7019801300190F6E7FFE702B0704720
:1003700081B00090009840F26001C2F20001086074
:10038000FFE740F26000C2F20000006808B1FFE73A
:10039000F7E701B07047000040F26000C2F20000D1
:1003A000006840B1FFE740F26001C2F20001086856
:1003B00001380860FFE770474EF68851CEF2000121
:1003C000086840F4700008607047000081B08DF844
:1003D00003009DF9030000280ED4FFE79DF90310E8
:1003E00001F01F02012090404A094EF20011CEF2A6
:1003F000000141F82200FFE701B0704782B08DF89C
:10040000070000919DF9070000280AD4FFE7009833
:1004100000019DF907104EF20042CEF2000288540E
:100420000BE0009800019DF8071001F00F014EF657
:100430001452CEF200028854FFE702B07047000069
:1004400080B582B043F63001C4F20201086840F082
:100450000400086040F60001C4F20201086820F0C0
:100460004060086040F60C01C4F20201086820F008
:100470004060086043F64401C4F20201086840F499
:100480008040086043F61401C4F20101086820F0BE
:10049000F0000860086840F02000086043F608415A
:1004A000C4F20101086840F40050086043F60041BE
:1004B000C4F20101086840F400500860282001904F
:1004C000FFF784FF01980021FFF798FF02B080BD7D
:1004D00080B584B003904EF21001CEF2000102917B
:1004E000002001900860039801384EF21401CEF20A
:1004F000000108604FF0FF300F21FFF77FFF0198E8
:1005000002994EF21802CEF200021060086820F044
:1005100004000860086840F002000860086840F0C5
:100520000100086004B080BD81B043F60001C4F250
:100530000201086840F001000860FFE743F6000090
:10054000C4F2020000688007002801D4FFE7F5E745
:1005500047F20001C4F20001086840F08000086022
:1005600043F60801C4F202010020086043F60001CE
:10057000C4F2020108684FF6FF72CFF6F66210402F
:100580000860FFE743F60000C4F202000068800143
:10059000002801D5FFE7F5E743F60401C4F20201A4
:1005A000009100200860086820F480000860086856
:1005B00040F480600860086840F4A840086008685B
:1005C00040F480200860086840F0E060086043F66E
:1005D0000001C4F20201086840F080700860FFE783
:1005E00043F60000C4F2020000688001002801D434
:1005F000FFE7F5E743F60041C4F20201086840F264
:1006000002321043086043F60801C4F20201086890
:1006100020F0F0000860086820F4E05008600868E6
:1006200040F480500860086820F460400860086862
:1006300020F003000860086840F0020008604EF6F1
:100640000851CEF200014FF00060086001B0704721
:1006500080B584B000200390FFF766FFFFF7F0FE3F
:100660004FF4FA60FFF734FFFFE7FFE740F2640062
:10067000C2F20000006801281DD1FFE742F2080124
:10068000C4F20101086840F080400860FFE742F2D0
:100690000000C4F2010000688007002801D4FFE7D1
:1006A000F5E742F24C00C4F20100006801900A2014
:1006B000FFF75EFEDAE740F26400C2F20000006875
:1006C000013048B1FFE742F20801C4F201010868B5
:1006D00020F080400860FFE700200290FFE70298CA
:1006E000B0F57A7F05DAFFE7FFE702980130029064
:1006F000F5E7BAE7F1EE100A4FF6FF71C0F2C0312C
:1007000020EA010040F04070E1EE100A704700005E
:100710002007000800000020680600000002000812
:04000005080001C529
:00000001FF
