:020000040800F2
:10000000600600204902000851020008530200085F
:1000100055020008570200085902000800000000BD
:100020000000000000000000000000005B0200086B
:100030005D020008000000005F0200086102000885
:1000400063020008630200086302000863020008FC
:1000500063020008630200086302000863020008EC
:1000600063020008630200086302000863020008DC
:1000700063020008630200086302000863020008CC
:1000800063020008630200086302000863020008BC
:1000900063020008630200086302000863020008AC
:1000A000630200086302000863020008630200089C
:1000B000630200086302000863020008630200088C
:1000C000630200086302000863020008630200087C
:1000D000630200086302000863020008630200086C
:1000E000630200086302000863020008630200085C
:1000F000630200086302000863020008630200084C
:10010000630200086302000863020008630200083B
:10011000630200086302000863020008630200082B
:10012000630200086302000863020008630200081B
:1001300063020008000000000000000063020008E5
:1001400063020008630200086302000863020008FB
:1001500063020008630200086302000863020008EB
:1001600063020008630200086302000863020008DB
:100170006302000863020008630200080000000038
:100180000000000063020008000000000000000002
:100190006302000800000000000000006302000885
:1001A00000000000000000000000000063020008E2
:1001B000630200086302000863020008630200088B
:1001C0006302000800F002F800F02EF80AA090E8A0
:1001D000000C82448344AAF10107DA4501D100F002
:1001E00023F8AFF2090EBAE80F0013F0010F18BFA1
:1001F000FB1A43F0010318472402000034020000F8
:100200000023002400250026103A28BF78C1FBD81F
:10021000520728BF30C148BF0B6070471FB500F0C0
:10022000D8F81FBD10B510BD00F031F81146FFF72A
:10023000F5FF00F0ABF800F04FF803B4FFF7F2FF62
:1002400003BC00F057F80000094880470948004700
:10025000FEE7FEE7FEE7FEE7FEE7FEE7FEE7FEE776
:10026000FEE7FEE704480549054A064B70470000D3
:1002700005030008C501000860000020600600209A
:10028000600200206002002070477047704775468A
:1002900000F02CF8AE4605006946534620F00700F2
:1002A000854618B020B5FFF7DDFFBDE820404FF0D0
:1002B00000064FF000074FF000084FF0000BAC466F
:1002C000ACE8C009ACE8C009ACE8C009ACE8C009BA
:1002D00021F007018D46704710B50446AFF300804A
:1002E0002046BDE81040FFF7A8BF00000048704757
:1002F0000000002001491820ABBEFEE726000200E6
:10030000704700004EF68851CEF20001086840F4B4
:10031000700008607047000043F63001C4F202012B
:10032000086840F0010008600021C4F2020108687A
:1003300040F44070086043F64001C4F202010868CE
:1003400040F00050086047F20041C4F20001086824
:1003500040F001000860704782B00190FFE701980B
:10036000012811DBFFE700200090FFE7009802283A
:1003700005DCFFE7FFE7009801300090F6E7FFE7B4
:10038000019801380190EAE702B0704780B582B069
:1003900000200190FFF7C0FFFFE700200090FFE77B
:1003A00000980B2814D8FFE7009940F2EC30C0F613
:1003B000000050F8210047F20841C4F20001086033
:1003C0000A20FFF7C9FFFFE7009801300090E7E738
:1003D000E3E7F1EE100A4FF6FF71C0F2C03120EAF8
:1003E000010040F04070E1EE100A70470008000084
:1003F000FF0B0000ED0E0000FF0F0000ED0E0000EF
:10040000FF0B0000000800000004000012010000C3
:100410000000000012010000000400002C0400088D
:0C04200000000020600600000002000840
:04000005080001C529
:00000001FF
