:020000040800F2
:10000000600600204902000851020008530200085F
:1000100055020008570200085902000800000000BD
:100020000000000000000000000000005B0200086B
:100030005D020008000000005F0200086102000885
:1000400063020008630200086302000863020008FC
:1000500063020008630200086302000863020008EC
:1000600063020008630200086302000863020008DC
:1000700063020008630200086302000863020008CC
:1000800063020008630200086302000863020008BC
:1000900063020008630200086302000863020008AC
:1000A000630200086302000863020008630200089C
:1000B000630200086302000863020008630200088C
:1000C000630200086302000863020008630200087C
:1000D000630200086302000863020008630200086C
:1000E000630200086302000863020008630200085C
:1000F000630200086302000863020008630200084C
:10010000630200086302000863020008630200083B
:10011000630200086302000863020008630200082B
:10012000630200086302000863020008630200081B
:1001300063020008000000000000000063020008E5
:1001400063020008630200086302000863020008FB
:1001500063020008630200086302000863020008EB
:1001600063020008630200086302000863020008DB
:100170006302000863020008630200080000000038
:100180000000000063020008000000000000000002
:100190006302000800000000000000006302000885
:1001A00000000000000000000000000063020008E2
:1001B000630200086302000863020008630200088B
:1001C0006302000800F002F800F02EF80AA090E8A0
:1001D000000C82448344AAF10107DA4501D100F002
:1001E00023F8AFF2090EBAE80F0013F0010F18BFA1
:1001F000FB1A43F00103184798030000A80300000E
:100200000023002400250026103A28BF78C1FBD81F
:10021000520728BF30C148BF0B6070471FB500F0C0
:10022000A9F91FBD10B510BD00F031F81146FFF758
:10023000F5FF00F053F900F04FF803B4FFF7F2FFB9
:1002400003BC00F057F80000094880470948004700
:10025000FEE7FEE7FEE7FEE7FEE7FEE7FEE7FEE776
:10026000FEE7FEE704480549054A064B70470000D3
:1002700005030008C501000860000020600600209A
:10028000600200206002002070477047704775468A
:1002900000F02CF8AE4605006946534620F00700F2
:1002A000854618B020B5FFF7DDFFBDE820404FF0D0
:1002B00000064FF000074FF000084FF0000BAC466F
:1002C000ACE8C009ACE8C009ACE8C009ACE8C009BA
:1002D00021F007018D46704710B50446AFF300804A
:1002E0002046BDE81040FFF7A8BF00000048704757
:1002F0000000002001491820ABBEFEE726000200E6
:10030000704700004EF68851CEF20001086840F4B4
:10031000700008607047000043F63001C4F202012B
:10032000086840F0010008600021C4F2020108687A
:1003300020F440600860086840F48060086008228B
:10034000C4F20202106820F440601060106840F4AB
:10035000006010600422C4F20202106820F0200045
:1003600010600C22C4F20202106820F44060106099
:10037000086840F00C00086043F64401C4F2020132
:10038000086840F48070086042F20801C4F201017C
:100390000020086042F23403C4F2010301221A6013
:1003A00042F22C02C4F201021060086840F0010021
:1003B0000860704781B043F60001C4F2020108688A
:1003C00040F001000860FFE743F60000C4F20200BD
:1003D00000688007002801D4FFE7F5E747F2000135
:1003E000C4F20001086840F08000086043F608018C
:1003F000C4F202010020086043F60001C4F20201C9
:1004000008684FF6FF72CFF6F66210400860FFE70B
:1004100043F60000C4F2020000688001002801D504
:10042000FFE7F5E743F60401C4F202010091002062
:100430000860086820F480000860086840F4806064
:100440000860086840F4A8400860086840F480200C
:100450000860086840F0E060086043F60001C4F2FC
:100460000201086840F080700860FFE743F6000072
:10047000C4F2020000688001002801D4FFE7F5E71C
:1004800043F60041C4F20201086840F20232104310
:10049000086043F60801C4F20201086820F0F00089
:1004A0000860086820F4E0500860086840F4805054
:1004B0000860086820F460400860086820F00300C5
:1004C0000860086840F0020008604EF60851CEF25D
:1004D00000014FF00060086001B0704780B584B043
:1004E00000200390FFF766FFFFF716FFFFE742F2D9
:1004F0000801C4F20101086840F080400860FFE78D
:1005000042F20000C4F2010000688007002801D414
:10051000FFE7F5E742F24C00C4F2010000680190E9
:100520000198B0F5006F03D9FFE700F01BF802E077
:1005300000F010F8FFE700200290FFE70298B0F506
:100540007A7F05DAFFE7FFE7029801300290F5E7CE
:10055000CDE700001421C4F20201086820F0200059
:10056000086070471421C4F20201086840F02000BE
:1005700008607047F1EE100A4FF6FF71C0F2C0310B
:1005800020EA010040F04070E1EE100A70470000E0
:10059000A00500080000002060060000000200081E
:04000005080001C529
:00000001FF
